:100000006F00C009000000000000000000000000B8
:1000100000000000000000000000000000000000E0
:1000200000000000000000000000000000000000D0
:1000300000000000000000000000000000000000C0
:1000400000000000000000000000000000000000B0
:1000500000000000000000000000000000000000A0
:100060000000000000000000000000000000000090
:100070000000000000000000000000000000000080
:100080000000000000000000000000000000000070
:1000900000000000000000000000000037110020F8
:1000A00013010180970200009382C2F593E23200AF
:1000B00073905230970200009382C2017390123401
:1000C0007300203013000000130000001300000034
:1000D000371502401305850183250500B71300007D
:1000E00093835303B3E575002320B5003715014012
:1000F00083250500B70310F09383F3F0B3F5750083
:10010000B703B00B93830303B3E575002320B50059
:10011000371502401305050183250500B7130000BC
:10012000B3E575002320B50093C3F3FFB3F5750065
:100130002320B50037350140831505009303C034F3
:10014000B3E575002310B5009303200037050020A8
:1001500013058504232075001305E0B2EF00802A03
:10016000EF000039EF00800A6FF0DFFF1301C1FDDF
:100170002320110023225100232461002326410063
:1001800023283100232A7100232C9100232E710093
:1001900023208102930220003713014013034301FF
:1001A00023205300373301401303C300230073009F
:1001B00037320140130282008351020093F1210083
:1001C000E38801FE230083008351020093F10108BC
:1001D000E39C01FE37130140130303012320530066
:1001E000032401028323C10183248101832341016C
:1001F000832101010322C1000323810083224100E6
:100200008320010013014102678000001301C1FD3A
:100210002320110023229100232441002326C10022
:1002200023283100232A5100232C6100232E710042
:1002300023208102B7040020938404041302005F8A
:10024000170600001306863B93010000B302360038
:1002500083C202003383540083430300330332001C
:1002600003440300EFF09FF09302007D9382F2FFBE
:10027000E39E02FE130400009303F00FEFF01FEF64
:100280009381110093028000E3C251FC0324010218
:100290008323C101032381018322410183210101C1
:1002A0000326C10003228100832441008320010032
:1002B0001301410267800000130141FD232011005A
:1002C00023224100232431002326510023286100EA
:1002D000232A7100232C8100232E91002320B102B8
:1002E0002322A1022324C1029704000093848431B5
:1002F000B7020020938202049305C05D13038000BF
:100300001302000083A1040093030000636835001A
:1003100033053540938313006FF05FFF639C030048
:10032000631A020013041000630683001306F00F23
:100330006F000001130210003386750003060600EB
:100340002380C20093844400938212001303F3FFBE
:10035000E31A03FA032681020325410283250102E1
:100360008324C1010324810183234101032301016B
:100370008322C100832181000322410083200100E8
:100380001301C10267800000130141FE2320110008
:1003900023225100232461002326910023284100B9
:1003A000232A7100232C8100B7020020938242018E
:1003B00003830200B704002093840404B384640020
:1003C00083C304001302005F33026200034402008F
:1003D000EFF0DFD91303130013737300238062005F
:1003E0000324810183234101032201018324C100ED
:1003F0000323810083224100832001001301C101F6
:1004000067800000130141FD2320110023224100D9
:10041000232431002326510023286100232A710060
:10042000232C8100232E91002320B1022322A1023C
:100430002324C102970400009384C41CB702002047
:10044000938202049305C05D130380001302000031
:10045000E35A05EA3305A0409301F00B23803200F4
:10046000938212001303F3FF9384440083A10400DA
:100470009303000063683500330535409383130010
:100480006FF05FFF639C0300631A02001304100007
:10049000630683001306F00F6F00000113021000C3
:1004A00033867500030606002380C200938444004F
:1004B000938212001303F3FFE31A03FA0326810267
:1004C00003254102832501028324C1010324810104
:1004D00083234101032301018322C1008321810081
:1004E00003224100832001001301C1026780000044
:1004F000130101FE23201100232241002324310097
:100500002326510023286100232A7100232CB100E7
:10051000232EC100B702002093820204938272004E
:10052000B7050020938585041303800013020000A3
:1005300083C105009303100033F6710063140600B5
:100540006F00000103C602001376F6072380C20085
:100550009382F2FF9393130013021200E31E62FCD6
:100560000326C10183258101832341010323010166
:100570008322C100832181000322410083200100E6
:10058000130101026780000000000000000000006D
:10059000000000000000000000000000000000005B
:1005A000000000000000000000000000000000004B
:1005B000000000000000000000000000000000003B
:1005C000000000000000000000000000000000002B
:0C05D0000000000000000000000000001F
:1005DC00C0F9A4B0999282F880908883C6A1868EC7
:1005EC00BFFF00008040201008040201030201003C
:1005FC00070605048096980040420F00A086010073
:10060C0010270000E8030000640000000A0000004E
:04061C0001000000D9
:040000030000009C5D
:00000001FF
