:100000006F00C009000000000000000000000000B8
:1000100000000000000000000000000000000000E0
:1000200000000000000000000000000000000000D0
:1000300000000000000000000000000000000000C0
:1000400000000000000000000000000000000000B0
:1000500000000000000000000000000000000000A0
:100060000000000000000000000000000000000090
:100070000000000000000000000000000000000080
:100080000000000000000000000000000000000070
:100090000000000000000000B8060000371100203A
:1000A00013010180970200009382C2F593E23200AF
:1000B00073905230970200009382C2017390123401
:1000C0007300203013000000130000001300000034
:1000D000371502401305850183250500B71300007D
:1000E00093835303B3E575002320B5003715024011
:1000F0001305C5018325050093E515002320B500F0
:100100003715014083250500B70310F09383F3F002
:10011000B3F57500B703B00B93830303B3E5750024
:100120002320B5003715024013050501832505007E
:10013000B7130000B3E575002320B50093C3F3FFA8
:10014000B3F575002320B500373501408315050050
:100150009303C034B3E575002310B50037050040A4
:1001600013058502930570002320B5003705004074
:100170001305C502B7250000938505712320B5003E
:10018000370500401305C5008325050093031000C3
:10019000B3E575002320B500370500408325050031
:1001A00093034008B3E575002320B50037050040F0
:1001B000130545018325050093031000B3E5750081
:1001C0002320B500370500401305050183250500F0
:1001D0009303A0FFB3F575002320B5003705004059
:1001E0008325050093E515002320B50037E500E0E1
:1001F0001305850483250500B703000093830308D6
:10020000B3E575002320B50037E500E01305451080
:100210008325050093030004B3E575002320B50092
:10022000930280087390023093032000370500206A
:10023000130585042320750013050000EF00402FEF
:10024000EF00003EEF00000213051500B705100097
:100250009385F5FFE314B5FE130500006FF01FFE54
:100260006F000000130181FF232011002322610091
:100270001303A07D1303F3FFE31E03FE03234100DA
:100280008320010013018100678000001301C1FD7C
:100290002320110023225100232461002326410042
:1002A00023283100232A7100232C9100232E710072
:1002B00023208102930220003713014013034301DE
:1002C00023205300373301401303C300230073007E
:1002D00037320140130282008351020093F1210062
:1002E000E38801FE230083008351020093F101089B
:1002F000E39C01FE37130140130303012320530045
:10030000032401028323C10183248101832341014A
:10031000832101010322C1000323810083224100C4
:100320008320010013014102678000001301C1FD19
:100330002320110023229100232441002326C10001
:1003400023283100232A5100232C6100232E710021
:1003500023208102B70400209384040417020000C4
:100360001302024A170600001306064A9301000012
:10037000B302360083C20200338354008343030078
:100380003303320003440300EFF05FF09302007D7B
:100390009382F2FFE39E02FE130400009303F00F2A
:1003A000EFF0DFEE9381110093028000E3C251FC75
:1003B000032401028323C10103238101832241011C
:1003C000832101010326C10003228100832441000F
:1003D000832001001301410267800000130141FDE9
:1003E0002320110023224100232431002326510021
:1003F00023286100232A7100232C8100232E9100E1
:100400002320B1022322A1022324C1029704000069
:1004100093840440B70200209382020497050000F1
:100420009385C53C130380001302000083A10400E0
:100430009303000063683500330535409383130050
:100440006FF05FFF639C0300631A02001304100047
:10045000630683001306F00F6F0000011302100003
:1004600033867500030606002380C200938444008F
:10047000938212001303F3FFE31A03FA03268102A7
:1004800003254102832501028324C1010324810144
:1004900083234101032301018322C10083218100C1
:1004A00003224100832001001301C1026780000084
:1004B000130141FE23201100232251002324610057
:1004C0002326910023284100232A7100232C810038
:1004D000B70200209382420103830200B704002088
:1004E00093840404B384640083C3040017020000EF
:1004F000130202313302620003440200EFF01FD9FD
:10050000130313001373730023806200032481011B
:1005100083234101032201018324C10003238100BD
:1005200083224100832001001301C1016780000084
:10053000130141FD23201100232241002324310017
:100540002326510023286100232A7100232C8100D7
:10055000232E91002320B1022322A1022324C102D1
:10056000970400009384C42AB702002093820204F7
:100570009705000093858527130380001302000070
:10058000E35605EA3305A0409301F00B23803200C7
:10059000938212001303F3FF9384440083A10400A9
:1005A00093030000636835003305354093831300DF
:1005B0006FF05FFF639C0300631A020013041000D6
:1005C000630683001306F00F6F0000011302100092
:1005D00033867500030606002380C200938444001E
:1005E000938212001303F3FFE31A03FA0326810236
:1005F00003254102832501028324C10103248101D3
:1006000083234101032301018322C100832181004F
:1006100003224100832001001301C1026780000012
:10062000130101FE23201100232241002324310065
:100630002326510023286100232A7100232CB100B6
:10064000232EC100B702002093820204938272001D
:10065000B705002093858504130380001302000072
:1006600083C105009303100033F671006314060084
:100670006F00000103C602001376F6072380C20054
:100680009382F2FF9393130013021200E31E62FCA5
:100690000326C10183258101832341010323010135
:1006A0008322C100832181000322410083200100B5
:1006B0001301010267800000130141FC232CF102A9
:1006C000232AE1022328D1022326C1022324B102D6
:1006D0002322A10223209102232E8100232C7100CA
:1006E000232A6100232851002326410023243100BE
:1006F00023222100232011003705004013050501A6
:10070000832505009303E0FFB3F575002320B500B2
:10071000EFF0DFC18320010003214100832181002C
:100720000322C100832201010323410183238101AC
:100730000324C10183240102032541028325810290
:100740000326C10283260103032741038327810374
:100750001301C103730020300000000000000000FE
:100760000000000000000000000000000000000089
:100770000000000000000000000000000000000079
:100780000000000000000000000000000000000069
:100790000000000000000000000000000000000059
:1007A0000000000000000000000000000000000049
:1007B0000000000000000000000000000000000039
:1007C0000000000000000000000000000000000029
:1007D0000000000000000000000000000000000019
:0807E000000000000000000011
:1007E800C0F9A4B0999282F880908883C6A1868EB9
:1007F800BFFF00008040201008040201030201002E
:10080800070605048096980040420F00A086010064
:1008180010270000E8030000640000000A00000040
:0408280001000000CB
:040000030000009C5D
:00000001FF
